{
  "_format": "hh-sol-artifact-1",
  "contractName": "WarOfSiblora",
  "sourceName": "contracts/WarOfSiblora.sol",
  "abi": [
    {
      "inputs": [
        {
          "internalType": "string[]",
          "name": "factionNames",
          "type": "string[]"
        },
        {
          "internalType": "string[]",
          "name": "factionImageURIs",
          "type": "string[]"
        },
        {
          "internalType": "uint256[]",
          "name": "armyUnitsActive",
          "type": "uint256[]"
        }
      ],
      "stateMutability": "nonpayable",
      "type": "constructor"
    },
    {
      "anonymous": false,
      "inputs": [
        {
          "indexed": true,
          "internalType": "address",
          "name": "owner",
          "type": "address"
        },
        {
          "indexed": true,
          "internalType": "address",
          "name": "approved",
          "type": "address"
        },
        {
          "indexed": true,
          "internalType": "uint256",
          "name": "tokenId",
          "type": "uint256"
        }
      ],
      "name": "Approval",
      "type": "event"
    },
    {
      "anonymous": false,
      "inputs": [
        {
          "indexed": true,
          "internalType": "address",
          "name": "owner",
          "type": "address"
        },
        {
          "indexed": true,
          "internalType": "address",
          "name": "operator",
          "type": "address"
        },
        {
          "indexed": false,
          "internalType": "bool",
          "name": "approved",
          "type": "bool"
        }
      ],
      "name": "ApprovalForAll",
      "type": "event"
    },
    {
      "anonymous": false,
      "inputs": [
        {
          "indexed": false,
          "internalType": "address",
          "name": "sender",
          "type": "address"
        },
        {
          "indexed": false,
          "internalType": "uint256",
          "name": "tokenId",
          "type": "uint256"
        },
        {
          "indexed": false,
          "internalType": "uint256",
          "name": "armyIndex",
          "type": "uint256"
        }
      ],
      "name": "ArmyNFTMinted",
      "type": "event"
    },
    {
      "anonymous": false,
      "inputs": [
        {
          "indexed": false,
          "internalType": "address",
          "name": "sender",
          "type": "address"
        },
        {
          "indexed": false,
          "internalType": "uint256",
          "name": "newEmpireArmyUnitsActive",
          "type": "uint256"
        },
        {
          "indexed": false,
          "internalType": "uint256",
          "name": "newPlayerArmyUnitsActive",
          "type": "uint256"
        }
      ],
      "name": "SkirmishComplete",
      "type": "event"
    },
    {
      "anonymous": false,
      "inputs": [
        {
          "indexed": true,
          "internalType": "address",
          "name": "from",
          "type": "address"
        },
        {
          "indexed": true,
          "internalType": "address",
          "name": "to",
          "type": "address"
        },
        {
          "indexed": true,
          "internalType": "uint256",
          "name": "tokenId",
          "type": "uint256"
        }
      ],
      "name": "Transfer",
      "type": "event"
    },
    {
      "inputs": [
        {
          "internalType": "address",
          "name": "to",
          "type": "address"
        },
        {
          "internalType": "uint256",
          "name": "tokenId",
          "type": "uint256"
        }
      ],
      "name": "approve",
      "outputs": [],
      "stateMutability": "nonpayable",
      "type": "function"
    },
    {
      "inputs": [
        {
          "internalType": "address",
          "name": "owner",
          "type": "address"
        }
      ],
      "name": "balanceOf",
      "outputs": [
        {
          "internalType": "uint256",
          "name": "",
          "type": "uint256"
        }
      ],
      "stateMutability": "view",
      "type": "function"
    },
    {
      "inputs": [],
      "name": "checkIfUserHasNFT",
      "outputs": [
        {
          "components": [
            {
              "internalType": "uint256",
              "name": "armyIndex",
              "type": "uint256"
            },
            {
              "internalType": "string",
              "name": "faction",
              "type": "string"
            },
            {
              "internalType": "string",
              "name": "imageURI",
              "type": "string"
            },
            {
              "internalType": "uint256",
              "name": "armyUnitsActive",
              "type": "uint256"
            },
            {
              "internalType": "uint256",
              "name": "armyUnitsWounded",
              "type": "uint256"
            }
          ],
          "internalType": "struct WarOfSiblora.ArmyAttributes",
          "name": "",
          "type": "tuple"
        }
      ],
      "stateMutability": "view",
      "type": "function"
    },
    {
      "inputs": [],
      "name": "empireArmy",
      "outputs": [
        {
          "internalType": "string",
          "name": "faction",
          "type": "string"
        },
        {
          "internalType": "string",
          "name": "imageURI",
          "type": "string"
        },
        {
          "internalType": "uint256",
          "name": "armyUnitsActive",
          "type": "uint256"
        },
        {
          "internalType": "uint256",
          "name": "armyUnitsWounded",
          "type": "uint256"
        }
      ],
      "stateMutability": "view",
      "type": "function"
    },
    {
      "inputs": [],
      "name": "getAllDefaultArmies",
      "outputs": [
        {
          "components": [
            {
              "internalType": "uint256",
              "name": "armyIndex",
              "type": "uint256"
            },
            {
              "internalType": "string",
              "name": "faction",
              "type": "string"
            },
            {
              "internalType": "string",
              "name": "imageURI",
              "type": "string"
            },
            {
              "internalType": "uint256",
              "name": "armyUnitsActive",
              "type": "uint256"
            },
            {
              "internalType": "uint256",
              "name": "armyUnitsWounded",
              "type": "uint256"
            }
          ],
          "internalType": "struct WarOfSiblora.ArmyAttributes[]",
          "name": "",
          "type": "tuple[]"
        }
      ],
      "stateMutability": "view",
      "type": "function"
    },
    {
      "inputs": [
        {
          "internalType": "uint256",
          "name": "tokenId",
          "type": "uint256"
        }
      ],
      "name": "getApproved",
      "outputs": [
        {
          "internalType": "address",
          "name": "",
          "type": "address"
        }
      ],
      "stateMutability": "view",
      "type": "function"
    },
    {
      "inputs": [],
      "name": "getEmpireArmy",
      "outputs": [
        {
          "components": [
            {
              "internalType": "string",
              "name": "faction",
              "type": "string"
            },
            {
              "internalType": "string",
              "name": "imageURI",
              "type": "string"
            },
            {
              "internalType": "uint256",
              "name": "armyUnitsActive",
              "type": "uint256"
            },
            {
              "internalType": "uint256",
              "name": "armyUnitsWounded",
              "type": "uint256"
            }
          ],
          "internalType": "struct WarOfSiblora.EmpireArmy",
          "name": "",
          "type": "tuple"
        }
      ],
      "stateMutability": "view",
      "type": "function"
    },
    {
      "inputs": [
        {
          "internalType": "address",
          "name": "owner",
          "type": "address"
        },
        {
          "internalType": "address",
          "name": "operator",
          "type": "address"
        }
      ],
      "name": "isApprovedForAll",
      "outputs": [
        {
          "internalType": "bool",
          "name": "",
          "type": "bool"
        }
      ],
      "stateMutability": "view",
      "type": "function"
    },
    {
      "inputs": [
        {
          "internalType": "uint256",
          "name": "_armyIndex",
          "type": "uint256"
        }
      ],
      "name": "mintArmyNFT",
      "outputs": [],
      "stateMutability": "nonpayable",
      "type": "function"
    },
    {
      "inputs": [],
      "name": "name",
      "outputs": [
        {
          "internalType": "string",
          "name": "",
          "type": "string"
        }
      ],
      "stateMutability": "view",
      "type": "function"
    },
    {
      "inputs": [
        {
          "internalType": "uint256",
          "name": "",
          "type": "uint256"
        }
      ],
      "name": "nftHolderAttributes",
      "outputs": [
        {
          "internalType": "uint256",
          "name": "armyIndex",
          "type": "uint256"
        },
        {
          "internalType": "string",
          "name": "faction",
          "type": "string"
        },
        {
          "internalType": "string",
          "name": "imageURI",
          "type": "string"
        },
        {
          "internalType": "uint256",
          "name": "armyUnitsActive",
          "type": "uint256"
        },
        {
          "internalType": "uint256",
          "name": "armyUnitsWounded",
          "type": "uint256"
        }
      ],
      "stateMutability": "view",
      "type": "function"
    },
    {
      "inputs": [
        {
          "internalType": "address",
          "name": "",
          "type": "address"
        }
      ],
      "name": "nftHolders",
      "outputs": [
        {
          "internalType": "uint256",
          "name": "",
          "type": "uint256"
        }
      ],
      "stateMutability": "view",
      "type": "function"
    },
    {
      "inputs": [
        {
          "internalType": "uint256",
          "name": "tokenId",
          "type": "uint256"
        }
      ],
      "name": "ownerOf",
      "outputs": [
        {
          "internalType": "address",
          "name": "",
          "type": "address"
        }
      ],
      "stateMutability": "view",
      "type": "function"
    },
    {
      "inputs": [
        {
          "internalType": "address",
          "name": "from",
          "type": "address"
        },
        {
          "internalType": "address",
          "name": "to",
          "type": "address"
        },
        {
          "internalType": "uint256",
          "name": "tokenId",
          "type": "uint256"
        }
      ],
      "name": "safeTransferFrom",
      "outputs": [],
      "stateMutability": "nonpayable",
      "type": "function"
    },
    {
      "inputs": [
        {
          "internalType": "address",
          "name": "from",
          "type": "address"
        },
        {
          "internalType": "address",
          "name": "to",
          "type": "address"
        },
        {
          "internalType": "uint256",
          "name": "tokenId",
          "type": "uint256"
        },
        {
          "internalType": "bytes",
          "name": "data",
          "type": "bytes"
        }
      ],
      "name": "safeTransferFrom",
      "outputs": [],
      "stateMutability": "nonpayable",
      "type": "function"
    },
    {
      "inputs": [
        {
          "internalType": "address",
          "name": "operator",
          "type": "address"
        },
        {
          "internalType": "bool",
          "name": "approved",
          "type": "bool"
        }
      ],
      "name": "setApprovalForAll",
      "outputs": [],
      "stateMutability": "nonpayable",
      "type": "function"
    },
    {
      "inputs": [],
      "name": "skirmish",
      "outputs": [],
      "stateMutability": "nonpayable",
      "type": "function"
    },
    {
      "inputs": [
        {
          "internalType": "bytes4",
          "name": "interfaceId",
          "type": "bytes4"
        }
      ],
      "name": "supportsInterface",
      "outputs": [
        {
          "internalType": "bool",
          "name": "",
          "type": "bool"
        }
      ],
      "stateMutability": "view",
      "type": "function"
    },
    {
      "inputs": [],
      "name": "symbol",
      "outputs": [
        {
          "internalType": "string",
          "name": "",
          "type": "string"
        }
      ],
      "stateMutability": "view",
      "type": "function"
    },
    {
      "inputs": [
        {
          "internalType": "uint256",
          "name": "_tokenId",
          "type": "uint256"
        }
      ],
      "name": "tokenURI",
      "outputs": [
        {
          "internalType": "string",
          "name": "",
          "type": "string"
        }
      ],
      "stateMutability": "view",
      "type": "function"
    },
    {
      "inputs": [
        {
          "internalType": "address",
          "name": "from",
          "type": "address"
        },
        {
          "internalType": "address",
          "name": "to",
          "type": "address"
        },
        {
          "internalType": "uint256",
          "name": "tokenId",
          "type": "uint256"
        }
      ],
      "name": "transferFrom",
      "outputs": [],
      "stateMutability": "nonpayable",
      "type": "function"
    }
  ],
  "bytecode": "0x60806040523480156200001157600080fd5b506040516200544a3803806200544a833981810160405281019062000037919062000a17565b6040518060400160405280600681526020017f41726d69657300000000000000000000000000000000000000000000000000008152506040518060400160405280600481526020017f41524d59000000000000000000000000000000000000000000000000000000008152508160009080519060200190620000bb929190620007aa565b508060019080519060200190620000d4929190620007aa565b50505060405180608001604052806040518060400160405280600681526020017f456d70697265000000000000000000000000000000000000000000000000000081525081526020016040518060400160405280602081526020017f68747470733a2f2f692e696d6775722e636f6d2f696c6f325942702e6a706567815250815260200161271081526020016000815250600a600082015181600001908051906020019062000185929190620007aa565b506020820151816001019080519060200190620001a4929190620007aa565b5060408201518160020155606082015181600301559050506200031d6040518060600160405280603481526020016200541660349139600a6000018054620001ec9062000ce2565b80601f01602080910402602001604051908101604052809291908181526020018280546200021a9062000ce2565b80156200026b5780601f106200023f576101008083540402835291602001916200026b565b820191906000526020600020905b8154815290600101906020018083116200024d57829003601f168201915b5050505050600a60020154600a6001018054620002889062000ce2565b80601f0160208091040260200160405190810160405280929190818152602001828054620002b69062000ce2565b8015620003075780601f10620002db5761010080835404028352916020019162000307565b820191906000526020600020905b815481529060010190602001808311620002e957829003601f168201915b5050505050620006bf60201b62001a2f1760201c565b60005b83518110156200069e5760076040518060a0016040528083815260200186848151811062000377577f4e487b7100000000000000000000000000000000000000000000000000000000600052603260045260246000fd5b60200260200101518152602001858481518110620003be577f4e487b7100000000000000000000000000000000000000000000000000000000600052603260045260246000fd5b6020026020010151815260200184848151811062000405577f4e487b7100000000000000000000000000000000000000000000000000000000600052603260045260246000fd5b602002602001015181526020016000815250908060018154018082558091505060019003906000526020600020906005020160009091909190915060008201518160000155602082015181600101908051906020019062000468929190620007aa565b50604082015181600201908051906020019062000487929190620007aa565b5060608201518160030155608082015181600401555050600060078281548110620004db577f4e487b7100000000000000000000000000000000000000000000000000000000600052603260045260246000fd5b90600052602060002090600502016040518060a001604052908160008201548152602001600182018054620005109062000ce2565b80601f01602080910402602001604051908101604052809291908181526020018280546200053e9062000ce2565b80156200058f5780601f1062000563576101008083540402835291602001916200058f565b820191906000526020600020905b8154815290600101906020018083116200057157829003601f168201915b50505050508152602001600282018054620005aa9062000ce2565b80601f0160208091040260200160405190810160405280929190818152602001828054620005d89062000ce2565b8015620006295780601f10620005fd5761010080835404028352916020019162000629565b820191906000526020600020905b8154815290600101906020018083116200060b57829003601f168201915b5050505050815260200160038201548152602001600482015481525050905062000686604051806060016040528060288152602001620053ee60289139826020015183606001518460400151620006bf60201b62001a2f1760201c565b5060018162000696919062000c45565b905062000320565b50620006b660066200076b60201b62001ad11760201c565b50505062000e06565b6200076584848484604051602401620006dc949392919062000b0a565b6040516020818303038152906040527f8d142cdd000000000000000000000000000000000000000000000000000000007bffffffffffffffffffffffffffffffffffffffffffffffffffffffff19166020820180517bffffffffffffffffffffffffffffffffffffffffffffffffffffffff83818316178352505050506200078160201b60201c565b50505050565b6001816000016000828254019250508190555050565b60008151905060006a636f6e736f6c652e6c6f679050602083016000808483855afa5050505050565b828054620007b89062000ce2565b90600052602060002090601f016020900481019282620007dc576000855562000828565b82601f10620007f757805160ff191683800117855562000828565b8280016001018555821562000828579182015b82811115620008275782518255916020019190600101906200080a565b5b5090506200083791906200083b565b5090565b5b80821115620008565760008160009055506001016200083c565b5090565b6000620008716200086b8462000b95565b62000b6c565b9050808382526020820190508260005b85811015620008b557815185016200089a8882620009d3565b84526020840193506020830192505060018101905062000881565b5050509392505050565b6000620008d6620008d08462000bc4565b62000b6c565b90508083825260208201905082856020860282011115620008f657600080fd5b60005b858110156200092a57816200090f888262000a00565b845260208401935060208301925050600181019050620008f9565b5050509392505050565b60006200094b620009458462000bf3565b62000b6c565b9050828152602081018484840111156200096457600080fd5b6200097184828562000cac565b509392505050565b600082601f8301126200098b57600080fd5b81516200099d8482602086016200085a565b91505092915050565b600082601f830112620009b857600080fd5b8151620009ca848260208601620008bf565b91505092915050565b600082601f830112620009e557600080fd5b8151620009f784826020860162000934565b91505092915050565b60008151905062000a118162000dec565b92915050565b60008060006060848603121562000a2d57600080fd5b600084015167ffffffffffffffff81111562000a4857600080fd5b62000a568682870162000979565b935050602084015167ffffffffffffffff81111562000a7457600080fd5b62000a828682870162000979565b925050604084015167ffffffffffffffff81111562000aa057600080fd5b62000aae86828701620009a6565b9150509250925092565b600062000ac58262000c29565b62000ad1818562000c34565b935062000ae381856020860162000cac565b62000aee8162000ddb565b840191505092915050565b62000b048162000ca2565b82525050565b6000608082019050818103600083015262000b26818762000ab8565b9050818103602083015262000b3c818662000ab8565b905062000b4d604083018562000af9565b818103606083015262000b61818462000ab8565b905095945050505050565b600062000b7862000b8b565b905062000b86828262000d18565b919050565b6000604051905090565b600067ffffffffffffffff82111562000bb35762000bb262000dac565b5b602082029050602081019050919050565b600067ffffffffffffffff82111562000be25762000be162000dac565b5b602082029050602081019050919050565b600067ffffffffffffffff82111562000c115762000c1062000dac565b5b62000c1c8262000ddb565b9050602081019050919050565b600081519050919050565b600082825260208201905092915050565b600062000c528262000ca2565b915062000c5f8362000ca2565b9250827fffffffffffffffffffffffffffffffffffffffffffffffffffffffffffffffff0382111562000c975762000c9662000d4e565b5b828201905092915050565b6000819050919050565b60005b8381101562000ccc57808201518184015260208101905062000caf565b8381111562000cdc576000848401525b50505050565b6000600282049050600182168062000cfb57607f821691505b6020821081141562000d125762000d1162000d7d565b5b50919050565b62000d238262000ddb565b810181811067ffffffffffffffff8211171562000d455762000d4462000dac565b5b80604052505050565b7f4e487b7100000000000000000000000000000000000000000000000000000000600052601160045260246000fd5b7f4e487b7100000000000000000000000000000000000000000000000000000000600052602260045260246000fd5b7f4e487b7100000000000000000000000000000000000000000000000000000000600052604160045260246000fd5b6000601f19601f8301169050919050565b62000df78162000ca2565b811462000e0357600080fd5b50565b6145d88062000e166000396000f3fe608060405234801561001057600080fd5b50600436106101375760003560e01c80637df124a1116100b8578063b88d4fde1161007c578063b88d4fde14610352578063c87b56dd1461036e578063c8cf27f41461039e578063e985e9c5146103bc578063ef37d789146103ec578063fc0724db1461040857610137565b80637df124a1146102aa57806395d89b41146102da57806398da4c95146102f8578063a22cb4651461032c578063a47184111461034857610137565b806336739f42116100ff57806336739f42146101f257806342842e0e146102105780634b48def31461022c5780636352211e1461024a57806370a082311461027a57610137565b806301ffc9a71461013c57806306fdde031461016c578063081812fc1461018a578063095ea7b3146101ba57806323b872dd146101d6575b600080fd5b61015660048036038101906101519190612e93565b610429565b604051610163919061363e565b60405180910390f35b61017461050b565b6040516101819190613659565b60405180910390f35b6101a4600480360381019061019f9190612ee5565b61059d565b6040516101b1919061357e565b60405180910390f35b6101d460048036038101906101cf9190612e57565b6105e3565b005b6101f060048036038101906101eb9190612d51565b6106fb565b005b6101fa61075b565b604051610207919061399d565b60405180910390f35b61022a60048036038101906102259190612d51565b6108ad565b005b6102346108cd565b604051610241919061361c565b60405180910390f35b610264600480360381019061025f9190612ee5565b610a6e565b604051610271919061357e565b60405180910390f35b610294600480360381019061028f9190612cec565b610b20565b6040516102a191906139bf565b60405180910390f35b6102c460048036038101906102bf9190612cec565b610bd8565b6040516102d191906139bf565b60405180910390f35b6102e2610bf0565b6040516102ef9190613659565b60405180910390f35b610312600480360381019061030d9190612ee5565b610c82565b6040516103239594939291906139da565b60405180910390f35b61034660048036038101906103419190612e1b565b610dc8565b005b610350610dde565b005b61036c60048036038101906103679190612da0565b6110a7565b005b61038860048036038101906103839190612ee5565b611109565b6040516103959190613659565b60405180910390f35b6103a6611306565b6040516103b3919061397b565b60405180910390f35b6103d660048036038101906103d19190612d15565b6114d4565b6040516103e3919061363e565b60405180910390f35b61040660048036038101906104019190612ee5565b611568565b005b610410611901565b604051610420949392919061371a565b60405180910390f35b60007f80ac58cd000000000000000000000000000000000000000000000000000000007bffffffffffffffffffffffffffffffffffffffffffffffffffffffff1916827bffffffffffffffffffffffffffffffffffffffffffffffffffffffff191614806104f457507f5b5e139f000000000000000000000000000000000000000000000000000000007bffffffffffffffffffffffffffffffffffffffffffffffffffffffff1916827bffffffffffffffffffffffffffffffffffffffffffffffffffffffff1916145b80610504575061050382611ae7565b5b9050919050565b60606000805461051a90613ce9565b80601f016020809104026020016040519081016040528092919081815260200182805461054690613ce9565b80156105935780601f1061056857610100808354040283529160200191610593565b820191906000526020600020905b81548152906001019060200180831161057657829003601f168201915b5050505050905090565b60006105a882611b51565b6004600083815260200190815260200160002060009054906101000a900473ffffffffffffffffffffffffffffffffffffffff169050919050565b60006105ee82610a6e565b90508073ffffffffffffffffffffffffffffffffffffffff168373ffffffffffffffffffffffffffffffffffffffff16141561065f576040517f08c379a0000000000000000000000000000000000000000000000000000000008152600401610656906138fb565b60405180910390fd5b8073ffffffffffffffffffffffffffffffffffffffff1661067e611b9c565b73ffffffffffffffffffffffffffffffffffffffff1614806106ad57506106ac816106a7611b9c565b6114d4565b5b6106ec576040517f08c379a00000000000000000000000000000000000000000000000000000000081526004016106e39061389b565b60405180910390fd5b6106f68383611ba4565b505050565b61070c610706611b9c565b82611c5d565b61074b576040517f08c379a00000000000000000000000000000000000000000000000000000000081526004016107429061395b565b60405180910390fd5b610756838383611cf2565b505050565b610763612b21565b600a60405180608001604052908160008201805461078090613ce9565b80601f01602080910402602001604051908101604052809291908181526020018280546107ac90613ce9565b80156107f95780601f106107ce576101008083540402835291602001916107f9565b820191906000526020600020905b8154815290600101906020018083116107dc57829003601f168201915b5050505050815260200160018201805461081290613ce9565b80601f016020809104026020016040519081016040528092919081815260200182805461083e90613ce9565b801561088b5780601f106108605761010080835404028352916020019161088b565b820191906000526020600020905b81548152906001019060200180831161086e57829003601f168201915b5050505050815260200160028201548152602001600382015481525050905090565b6108c8838383604051806020016040528060008152506110a7565b505050565b60606007805480602002602001604051908101604052809291908181526020016000905b82821015610a6557838290600052602060002090600502016040518060a00160405290816000820154815260200160018201805461092e90613ce9565b80601f016020809104026020016040519081016040528092919081815260200182805461095a90613ce9565b80156109a75780601f1061097c576101008083540402835291602001916109a7565b820191906000526020600020905b81548152906001019060200180831161098a57829003601f168201915b505050505081526020016002820180546109c090613ce9565b80601f01602080910402602001604051908101604052809291908181526020018280546109ec90613ce9565b8015610a395780601f10610a0e57610100808354040283529160200191610a39565b820191906000526020600020905b815481529060010190602001808311610a1c57829003601f168201915b5050505050815260200160038201548152602001600482015481525050815260200190600101906108f1565b50505050905090565b6000806002600084815260200190815260200160002060009054906101000a900473ffffffffffffffffffffffffffffffffffffffff169050600073ffffffffffffffffffffffffffffffffffffffff168173ffffffffffffffffffffffffffffffffffffffff161415610b17576040517f08c379a0000000000000000000000000000000000000000000000000000000008152600401610b0e906138db565b60405180910390fd5b80915050919050565b60008073ffffffffffffffffffffffffffffffffffffffff168273ffffffffffffffffffffffffffffffffffffffff161415610b91576040517f08c379a0000000000000000000000000000000000000000000000000000000008152600401610b889061387b565b60405180910390fd5b600360008373ffffffffffffffffffffffffffffffffffffffff1673ffffffffffffffffffffffffffffffffffffffff168152602001908152602001600020549050919050565b60096020528060005260406000206000915090505481565b606060018054610bff90613ce9565b80601f0160208091040260200160405190810160405280929190818152602001828054610c2b90613ce9565b8015610c785780601f10610c4d57610100808354040283529160200191610c78565b820191906000526020600020905b815481529060010190602001808311610c5b57829003601f168201915b5050505050905090565b6008602052806000526040600020600091509050806000015490806001018054610cab90613ce9565b80601f0160208091040260200160405190810160405280929190818152602001828054610cd790613ce9565b8015610d245780601f10610cf957610100808354040283529160200191610d24565b820191906000526020600020905b815481529060010190602001808311610d0757829003601f168201915b505050505090806002018054610d3990613ce9565b80601f0160208091040260200160405190810160405280929190818152602001828054610d6590613ce9565b8015610db25780601f10610d8757610100808354040283529160200191610db2565b820191906000526020600020905b815481529060010190602001808311610d9557829003601f168201915b5050505050908060030154908060040154905085565b610dda610dd3611b9c565b8383611f59565b5050565b6000600960003373ffffffffffffffffffffffffffffffffffffffff1673ffffffffffffffffffffffffffffffffffffffff1681526020019081526020016000205490506000600860008381526020019081526020016000209050610eec60405180608001604052806049815260200161455a60499139826001018054610e6490613ce9565b80601f0160208091040260200160405190810160405280929190818152602001828054610e9090613ce9565b8015610edd5780601f10610eb257610100808354040283529160200191610edd565b820191906000526020600020905b815481529060010190602001808311610ec057829003601f168201915b505050505083600301546120c6565b610f136040518060600160405280602c815260200161452e602c9139600a60020154612165565b6000816003015411610f5a576040517f08c379a0000000000000000000000000000000000000000000000000000000008152600401610f519061391b565b60405180910390fd5b6000600a6002015411610fa2576040517f08c379a0000000000000000000000000000000000000000000000000000000008152600401610f999061393b565b60405180910390fd5b6032600a600201541015610fc0576000600a60020181905550610fdc565b6032600a60020154610fd29190613bff565b600a600201819055505b603281600301541015610ff85760008160030181905550611012565b603281600301546110099190613bff565b81600301819055505b6110396040518060600160405280603381526020016144fb60339139600a60020154612165565b61105f604051806060016040528060348152602001614487603491398260030154612165565b7ff3696899de66988727f9d25d13fa9a6d341f8d970bc25697a8911c13ab8a1d9533600a60020154836003015460405161109b939291906135e5565b60405180910390a15050565b6110b86110b2611b9c565b83611c5d565b6110f7576040517f08c379a00000000000000000000000000000000000000000000000000000000081526004016110ee9061395b565b60405180910390fd5b61110384848484612201565b50505050565b60606000600860008481526020019081526020016000206040518060a00160405290816000820154815260200160018201805461114590613ce9565b80601f016020809104026020016040519081016040528092919081815260200182805461117190613ce9565b80156111be5780601f10611193576101008083540402835291602001916111be565b820191906000526020600020905b8154815290600101906020018083116111a157829003601f168201915b505050505081526020016002820180546111d790613ce9565b80601f016020809104026020016040519081016040528092919081815260200182805461120390613ce9565b80156112505780601f1061122557610100808354040283529160200191611250565b820191906000526020600020905b81548152906001019060200180831161123357829003601f168201915b50505050508152602001600382015481526020016004820154815250509050600061127e826060015161225d565b9050600061128f836080015161225d565b905060006112d384602001516112a48861225d565b866040015186866040516020016112bf9594939291906134f1565b60405160208183030381529060405261240a565b90506000816040516020016112e891906134cf565b60405160208183030381529060405290508095505050505050919050565b61130e612b49565b6000600960003373ffffffffffffffffffffffffffffffffffffffff1673ffffffffffffffffffffffffffffffffffffffff16815260200190815260200160002054905060008111156114c357600860008281526020019081526020016000206040518060a00160405290816000820154815260200160018201805461139390613ce9565b80601f01602080910402602001604051908101604052809291908181526020018280546113bf90613ce9565b801561140c5780601f106113e15761010080835404028352916020019161140c565b820191906000526020600020905b8154815290600101906020018083116113ef57829003601f168201915b5050505050815260200160028201805461142590613ce9565b80601f016020809104026020016040519081016040528092919081815260200182805461145190613ce9565b801561149e5780601f106114735761010080835404028352916020019161149e565b820191906000526020600020905b81548152906001019060200180831161148157829003601f168201915b50505050508152602001600382015481526020016004820154815250509150506114d1565b6114cb612b49565b80925050505b90565b6000600560008473ffffffffffffffffffffffffffffffffffffffff1673ffffffffffffffffffffffffffffffffffffffff16815260200190815260200160002060008373ffffffffffffffffffffffffffffffffffffffff1673ffffffffffffffffffffffffffffffffffffffff16815260200190815260200160002060009054906101000a900460ff16905092915050565b600061157460066125c8565b905061158033826125d6565b6040518060a00160405280838152602001600784815481106115cb577f4e487b7100000000000000000000000000000000000000000000000000000000600052603260045260246000fd5b906000526020600020906005020160010180546115e790613ce9565b80601f016020809104026020016040519081016040528092919081815260200182805461161390613ce9565b80156116605780601f1061163557610100808354040283529160200191611660565b820191906000526020600020905b81548152906001019060200180831161164357829003601f168201915b50505050508152602001600784815481106116a4577f4e487b7100000000000000000000000000000000000000000000000000000000600052603260045260246000fd5b906000526020600020906005020160020180546116c090613ce9565b80601f01602080910402602001604051908101604052809291908181526020018280546116ec90613ce9565b80156117395780601f1061170e57610100808354040283529160200191611739565b820191906000526020600020905b81548152906001019060200180831161171c57829003601f168201915b505050505081526020016007848154811061177d577f4e487b7100000000000000000000000000000000000000000000000000000000600052603260045260246000fd5b9060005260206000209060050201600301548152602001600784815481106117ce577f4e487b7100000000000000000000000000000000000000000000000000000000600052603260045260246000fd5b9060005260206000209060050201600401548152506008600083815260200190815260200160002060008201518160000155602082015181600101908051906020019061181c929190612b78565b506040820151816002019080519060200190611839929190612b78565b50606082015181600301556080820151816004015590505061187460405180606001604052806029815260200161445e6029913982846125f4565b80600960003373ffffffffffffffffffffffffffffffffffffffff1673ffffffffffffffffffffffffffffffffffffffff168152602001908152602001600020819055506118c26006611ad1565b7f5ce89e933f4aeaa390e4139877c20edffc18dac645789c04e36dad588ed276443382846040516118f5939291906135e5565b60405180910390a15050565b600a80600001805461191290613ce9565b80601f016020809104026020016040519081016040528092919081815260200182805461193e90613ce9565b801561198b5780601f106119605761010080835404028352916020019161198b565b820191906000526020600020905b81548152906001019060200180831161196e57829003601f168201915b5050505050908060010180546119a090613ce9565b80601f01602080910402602001604051908101604052809291908181526020018280546119cc90613ce9565b8015611a195780601f106119ee57610100808354040283529160200191611a19565b820191906000526020600020905b8154815290600101906020018083116119fc57829003601f168201915b5050505050908060020154908060030154905084565b611acb84848484604051602401611a4994939291906136c0565b6040516020818303038152906040527f8d142cdd000000000000000000000000000000000000000000000000000000007bffffffffffffffffffffffffffffffffffffffffffffffffffffffff19166020820180517bffffffffffffffffffffffffffffffffffffffffffffffffffffffff8381831617835250505050612693565b50505050565b6001816000016000828254019250508190555050565b60007f01ffc9a7000000000000000000000000000000000000000000000000000000007bffffffffffffffffffffffffffffffffffffffffffffffffffffffff1916827bffffffffffffffffffffffffffffffffffffffffffffffffffffffff1916149050919050565b611b5a816126bc565b611b99576040517f08c379a0000000000000000000000000000000000000000000000000000000008152600401611b90906138db565b60405180910390fd5b50565b600033905090565b816004600083815260200190815260200160002060006101000a81548173ffffffffffffffffffffffffffffffffffffffff021916908373ffffffffffffffffffffffffffffffffffffffff160217905550808273ffffffffffffffffffffffffffffffffffffffff16611c1783610a6e565b73ffffffffffffffffffffffffffffffffffffffff167f8c5be1e5ebec7d5bd14f71427d1e84f3dd0314c0f7b2291e5b200ac8c7c3b92560405160405180910390a45050565b600080611c6983610a6e565b90508073ffffffffffffffffffffffffffffffffffffffff168473ffffffffffffffffffffffffffffffffffffffff161480611cab5750611caa81856114d4565b5b80611ce957508373ffffffffffffffffffffffffffffffffffffffff16611cd18461059d565b73ffffffffffffffffffffffffffffffffffffffff16145b91505092915050565b8273ffffffffffffffffffffffffffffffffffffffff16611d1282610a6e565b73ffffffffffffffffffffffffffffffffffffffff1614611d68576040517f08c379a0000000000000000000000000000000000000000000000000000000008152600401611d5f906137fb565b60405180910390fd5b600073ffffffffffffffffffffffffffffffffffffffff168273ffffffffffffffffffffffffffffffffffffffff161415611dd8576040517f08c379a0000000000000000000000000000000000000000000000000000000008152600401611dcf9061383b565b60405180910390fd5b611de3838383612728565b611dee600082611ba4565b6001600360008573ffffffffffffffffffffffffffffffffffffffff1673ffffffffffffffffffffffffffffffffffffffff1681526020019081526020016000206000828254611e3e9190613bff565b925050819055506001600360008473ffffffffffffffffffffffffffffffffffffffff1673ffffffffffffffffffffffffffffffffffffffff1681526020019081526020016000206000828254611e959190613b1e565b92505081905550816002600083815260200190815260200160002060006101000a81548173ffffffffffffffffffffffffffffffffffffffff021916908373ffffffffffffffffffffffffffffffffffffffff160217905550808273ffffffffffffffffffffffffffffffffffffffff168473ffffffffffffffffffffffffffffffffffffffff167fddf252ad1be2c89b69c2b068fc378daa952ba7f163c4a11628f55a4df523b3ef60405160405180910390a4611f5483838361272d565b505050565b8173ffffffffffffffffffffffffffffffffffffffff168373ffffffffffffffffffffffffffffffffffffffff161415611fc8576040517f08c379a0000000000000000000000000000000000000000000000000000000008152600401611fbf9061385b565b60405180910390fd5b80600560008573ffffffffffffffffffffffffffffffffffffffff1673ffffffffffffffffffffffffffffffffffffffff16815260200190815260200160002060008473ffffffffffffffffffffffffffffffffffffffff1673ffffffffffffffffffffffffffffffffffffffff16815260200190815260200160002060006101000a81548160ff0219169083151502179055508173ffffffffffffffffffffffffffffffffffffffff168373ffffffffffffffffffffffffffffffffffffffff167f17307eab39ab6107e8899845ad3d59bd9653f200f220920489ca2b5937696c31836040516120b9919061363e565b60405180910390a3505050565b6121608383836040516024016120de9392919061367b565b6040516020818303038152906040527ff362ca59000000000000000000000000000000000000000000000000000000007bffffffffffffffffffffffffffffffffffffffffffffffffffffffff19166020820180517bffffffffffffffffffffffffffffffffffffffffffffffffffffffff8381831617835250505050612693565b505050565b6121fd828260405160240161217b92919061376d565b6040516020818303038152906040527f9710a9d0000000000000000000000000000000000000000000000000000000007bffffffffffffffffffffffffffffffffffffffffffffffffffffffff19166020820180517bffffffffffffffffffffffffffffffffffffffffffffffffffffffff8381831617835250505050612693565b5050565b61220c848484611cf2565b61221884848484612732565b612257576040517f08c379a000000000000000000000000000000000000000000000000000000000815260040161224e906137db565b60405180910390fd5b50505050565b606060008214156122a5576040518060400160405280600181526020017f30000000000000000000000000000000000000000000000000000000000000008152509050612405565b600082905060005b600082146122d75780806122c090613d4c565b915050600a826122d09190613b74565b91506122ad565b60008167ffffffffffffffff811115612319577f4e487b7100000000000000000000000000000000000000000000000000000000600052604160045260246000fd5b6040519080825280601f01601f19166020018201604052801561234b5781602001600182028036833780820191505090505b5090505b600085146123fe576001826123649190613bff565b9150600a856123739190613d95565b603061237f9190613b1e565b60f81b8183815181106123bb577f4e487b7100000000000000000000000000000000000000000000000000000000600052603260045260246000fd5b60200101907effffffffffffffffffffffffffffffffffffffffffffffffffffffffffffff1916908160001a905350600a856123f79190613b74565b945061234f565b8093505050505b919050565b6060600082519050600081141561243357604051806020016040528060008152509150506125c3565b600060036002836124449190613b1e565b61244e9190613b74565b600461245a9190613ba5565b9050600060208261246b9190613b1e565b67ffffffffffffffff8111156124aa577f4e487b7100000000000000000000000000000000000000000000000000000000600052604160045260246000fd5b6040519080825280601f01601f1916602001820160405280156124dc5781602001600182028036833780820191505090505b50905060006040518060600160405280604081526020016144bb604091399050600181016020830160005b868110156125805760038101905062ffffff818a015116603f8160121c168401518060081b905060ff603f83600c1c1686015116810190508060081b905060ff603f8360061c1686015116810190508060081b905060ff603f831686015116810190508060e01b90508084526004840193505050612507565b50600386066001811461259a57600281146125aa576125b5565b613d3d60f01b60028303526125b5565b603d60f81b60018303525b508484525050819450505050505b919050565b600081600001549050919050565b6125f08282604051806020016040528060008152506128c9565b5050565b61268e83838360405160240161260c9392919061379d565b6040516020818303038152906040527f969cdd03000000000000000000000000000000000000000000000000000000007bffffffffffffffffffffffffffffffffffffffffffffffffffffffff19166020820180517bffffffffffffffffffffffffffffffffffffffffffffffffffffffff8381831617835250505050612693565b505050565b60008151905060006a636f6e736f6c652e6c6f679050602083016000808483855afa5050505050565b60008073ffffffffffffffffffffffffffffffffffffffff166002600084815260200190815260200160002060009054906101000a900473ffffffffffffffffffffffffffffffffffffffff1673ffffffffffffffffffffffffffffffffffffffff1614159050919050565b505050565b505050565b60006127538473ffffffffffffffffffffffffffffffffffffffff16612924565b156128bc578373ffffffffffffffffffffffffffffffffffffffff1663150b7a0261277c611b9c565b8786866040518563ffffffff1660e01b815260040161279e9493929190613599565b602060405180830381600087803b1580156127b857600080fd5b505af19250505080156127e957506040513d601f19601f820116820180604052508101906127e69190612ebc565b60015b61286c573d8060008114612819576040519150601f19603f3d011682016040523d82523d6000602084013e61281e565b606091505b50600081511415612864576040517f08c379a000000000000000000000000000000000000000000000000000000000815260040161285b906137db565b60405180910390fd5b805181602001fd5b63150b7a0260e01b7bffffffffffffffffffffffffffffffffffffffffffffffffffffffff1916817bffffffffffffffffffffffffffffffffffffffffffffffffffffffff1916149150506128c1565b600190505b949350505050565b6128d38383612947565b6128e06000848484612732565b61291f576040517f08c379a0000000000000000000000000000000000000000000000000000000008152600401612916906137db565b60405180910390fd5b505050565b6000808273ffffffffffffffffffffffffffffffffffffffff163b119050919050565b600073ffffffffffffffffffffffffffffffffffffffff168273ffffffffffffffffffffffffffffffffffffffff1614156129b7576040517f08c379a00000000000000000000000000000000000000000000000000000000081526004016129ae906138bb565b60405180910390fd5b6129c0816126bc565b15612a00576040517f08c379a00000000000000000000000000000000000000000000000000000000081526004016129f79061381b565b60405180910390fd5b612a0c60008383612728565b6001600360008473ffffffffffffffffffffffffffffffffffffffff1673ffffffffffffffffffffffffffffffffffffffff1681526020019081526020016000206000828254612a5c9190613b1e565b92505081905550816002600083815260200190815260200160002060006101000a81548173ffffffffffffffffffffffffffffffffffffffff021916908373ffffffffffffffffffffffffffffffffffffffff160217905550808273ffffffffffffffffffffffffffffffffffffffff16600073ffffffffffffffffffffffffffffffffffffffff167fddf252ad1be2c89b69c2b068fc378daa952ba7f163c4a11628f55a4df523b3ef60405160405180910390a4612b1d6000838361272d565b5050565b6040518060800160405280606081526020016060815260200160008152602001600081525090565b6040518060a0016040528060008152602001606081526020016060815260200160008152602001600081525090565b828054612b8490613ce9565b90600052602060002090601f016020900481019282612ba65760008555612bed565b82601f10612bbf57805160ff1916838001178555612bed565b82800160010185558215612bed579182015b82811115612bec578251825591602001919060010190612bd1565b5b509050612bfa9190612bfe565b5090565b5b80821115612c17576000816000905550600101612bff565b5090565b6000612c2e612c2984613a60565b613a3b565b905082815260208101848484011115612c4657600080fd5b612c51848285613ca7565b509392505050565b600081359050612c6881614401565b92915050565b600081359050612c7d81614418565b92915050565b600081359050612c928161442f565b92915050565b600081519050612ca78161442f565b92915050565b600082601f830112612cbe57600080fd5b8135612cce848260208601612c1b565b91505092915050565b600081359050612ce681614446565b92915050565b600060208284031215612cfe57600080fd5b6000612d0c84828501612c59565b91505092915050565b60008060408385031215612d2857600080fd5b6000612d3685828601612c59565b9250506020612d4785828601612c59565b9150509250929050565b600080600060608486031215612d6657600080fd5b6000612d7486828701612c59565b9350506020612d8586828701612c59565b9250506040612d9686828701612cd7565b9150509250925092565b60008060008060808587031215612db657600080fd5b6000612dc487828801612c59565b9450506020612dd587828801612c59565b9350506040612de687828801612cd7565b925050606085013567ffffffffffffffff811115612e0357600080fd5b612e0f87828801612cad565b91505092959194509250565b60008060408385031215612e2e57600080fd5b6000612e3c85828601612c59565b9250506020612e4d85828601612c6e565b9150509250929050565b60008060408385031215612e6a57600080fd5b6000612e7885828601612c59565b9250506020612e8985828601612cd7565b9150509250929050565b600060208284031215612ea557600080fd5b6000612eb384828501612c83565b91505092915050565b600060208284031215612ece57600080fd5b6000612edc84828501612c98565b91505092915050565b600060208284031215612ef757600080fd5b6000612f0584828501612cd7565b91505092915050565b6000612f1a838361334d565b905092915050565b612f2b81613c33565b82525050565b6000612f3c82613aa1565b612f468185613acf565b935083602082028501612f5885613a91565b8060005b85811015612f945784840389528151612f758582612f0e565b9450612f8083613ac2565b925060208a01995050600181019050612f5c565b50829750879550505050505092915050565b612faf81613c45565b82525050565b6000612fc082613aac565b612fca8185613ae0565b9350612fda818560208601613cb6565b612fe381613e82565b840191505092915050565b6000612ff982613ab7565b6130038185613af1565b9350613013818560208601613cb6565b61301c81613e82565b840191505092915050565b600061303282613ab7565b61303c8185613b02565b935061304c818560208601613cb6565b61305581613e82565b840191505092915050565b600061306b82613ab7565b6130758185613b13565b9350613085818560208601613cb6565b80840191505092915050565b600061309e600b83613b13565b91506130a982613e93565b600b82019050919050565b60006130c1603283613b02565b91506130cc82613ebc565b604082019050919050565b60006130e4602583613b02565b91506130ef82613f0b565b604082019050919050565b6000613107601c83613b02565b915061311282613f5a565b602082019050919050565b600061312a603283613b13565b915061313582613f83565b603282019050919050565b600061314d602483613b02565b915061315882613fd2565b604082019050919050565b6000613170601983613b02565b915061317b82614021565b602082019050919050565b6000613193602983613b02565b915061319e8261404a565b604082019050919050565b60006131b6604183613b13565b91506131c182614099565b604182019050919050565b60006131d9600483613b13565b91506131e48261410e565b600482019050919050565b60006131fc603e83613b02565b915061320782614137565b604082019050919050565b600061321f602083613b02565b915061322a82614186565b602082019050919050565b6000613242601883613b02565b915061324d826141af565b602082019050919050565b6000613265602183613b02565b9150613270826141d8565b604082019050919050565b6000613288601d83613b13565b915061329382614227565b601d82019050919050565b60006132ab602983613b02565b91506132b682614250565b604082019050919050565b60006132ce606183613b13565b91506132d98261429f565b606182019050919050565b60006132f1602983613b02565b91506132fc8261433a565b604082019050919050565b6000613314600d83613b13565b915061331f82614389565b600d82019050919050565b6000613337602e83613b02565b9150613342826143b2565b604082019050919050565b600060a08301600083015161336560008601826134b1565b506020830151848203602086015261337d8282612fee565b915050604083015184820360408601526133978282612fee565b91505060608301516133ac60608601826134b1565b5060808301516133bf60808601826134b1565b508091505092915050565b600060a0830160008301516133e260008601826134b1565b50602083015184820360208601526133fa8282612fee565b915050604083015184820360408601526134148282612fee565b915050606083015161342960608601826134b1565b50608083015161343c60808601826134b1565b508091505092915050565b600060808301600083015184820360008601526134648282612fee565b9150506020830151848203602086015261347e8282612fee565b915050604083015161349360408601826134b1565b5060608301516134a660608601826134b1565b508091505092915050565b6134ba81613c9d565b82525050565b6134c981613c9d565b82525050565b60006134da8261327b565b91506134e68284613060565b915081905092915050565b60006134fc82613307565b91506135088288613060565b915061351382613091565b915061351f8287613060565b915061352a826132c1565b91506135368286613060565b9150613541826131a9565b915061354d8285613060565b91506135588261311d565b91506135648284613060565b915061356f826131cc565b91508190509695505050505050565b60006020820190506135936000830184612f22565b92915050565b60006080820190506135ae6000830187612f22565b6135bb6020830186612f22565b6135c860408301856134c0565b81810360608301526135da8184612fb5565b905095945050505050565b60006060820190506135fa6000830186612f22565b61360760208301856134c0565b61361460408301846134c0565b949350505050565b600060208201905081810360008301526136368184612f31565b905092915050565b60006020820190506136536000830184612fa6565b92915050565b600060208201905081810360008301526136738184613027565b905092915050565b600060608201905081810360008301526136958186613027565b905081810360208301526136a98185613027565b90506136b860408301846134c0565b949350505050565b600060808201905081810360008301526136da8187613027565b905081810360208301526136ee8186613027565b90506136fd60408301856134c0565b818103606083015261370f8184613027565b905095945050505050565b600060808201905081810360008301526137348187613027565b905081810360208301526137488186613027565b905061375760408301856134c0565b61376460608301846134c0565b95945050505050565b600060408201905081810360008301526137878185613027565b905061379660208301846134c0565b9392505050565b600060608201905081810360008301526137b78186613027565b90506137c660208301856134c0565b6137d360408301846134c0565b949350505050565b600060208201905081810360008301526137f4816130b4565b9050919050565b60006020820190508181036000830152613814816130d7565b9050919050565b60006020820190508181036000830152613834816130fa565b9050919050565b6000602082019050818103600083015261385481613140565b9050919050565b6000602082019050818103600083015261387481613163565b9050919050565b6000602082019050818103600083015261389481613186565b9050919050565b600060208201905081810360008301526138b4816131ef565b9050919050565b600060208201905081810360008301526138d481613212565b9050919050565b600060208201905081810360008301526138f481613235565b9050919050565b6000602082019050818103600083015261391481613258565b9050919050565b600060208201905081810360008301526139348161329e565b9050919050565b60006020820190508181036000830152613954816132e4565b9050919050565b600060208201905081810360008301526139748161332a565b9050919050565b6000602082019050818103600083015261399581846133ca565b905092915050565b600060208201905081810360008301526139b78184613447565b905092915050565b60006020820190506139d460008301846134c0565b92915050565b600060a0820190506139ef60008301886134c0565b8181036020830152613a018187613027565b90508181036040830152613a158186613027565b9050613a2460608301856134c0565b613a3160808301846134c0565b9695505050505050565b6000613a45613a56565b9050613a518282613d1b565b919050565b6000604051905090565b600067ffffffffffffffff821115613a7b57613a7a613e53565b5b613a8482613e82565b9050602081019050919050565b6000819050602082019050919050565b600081519050919050565b600081519050919050565b600081519050919050565b6000602082019050919050565b600082825260208201905092915050565b600082825260208201905092915050565b600082825260208201905092915050565b600082825260208201905092915050565b600081905092915050565b6000613b2982613c9d565b9150613b3483613c9d565b9250827fffffffffffffffffffffffffffffffffffffffffffffffffffffffffffffffff03821115613b6957613b68613dc6565b5b828201905092915050565b6000613b7f82613c9d565b9150613b8a83613c9d565b925082613b9a57613b99613df5565b5b828204905092915050565b6000613bb082613c9d565b9150613bbb83613c9d565b9250817fffffffffffffffffffffffffffffffffffffffffffffffffffffffffffffffff0483118215151615613bf457613bf3613dc6565b5b828202905092915050565b6000613c0a82613c9d565b9150613c1583613c9d565b925082821015613c2857613c27613dc6565b5b828203905092915050565b6000613c3e82613c7d565b9050919050565b60008115159050919050565b60007fffffffff0000000000000000000000000000000000000000000000000000000082169050919050565b600073ffffffffffffffffffffffffffffffffffffffff82169050919050565b6000819050919050565b82818337600083830152505050565b60005b83811015613cd4578082015181840152602081019050613cb9565b83811115613ce3576000848401525b50505050565b60006002820490506001821680613d0157607f821691505b60208210811415613d1557613d14613e24565b5b50919050565b613d2482613e82565b810181811067ffffffffffffffff82111715613d4357613d42613e53565b5b80604052505050565b6000613d5782613c9d565b91507fffffffffffffffffffffffffffffffffffffffffffffffffffffffffffffffff821415613d8a57613d89613dc6565b5b600182019050919050565b6000613da082613c9d565b9150613dab83613c9d565b925082613dbb57613dba613df5565b5b828206905092915050565b7f4e487b7100000000000000000000000000000000000000000000000000000000600052601160045260246000fd5b7f4e487b7100000000000000000000000000000000000000000000000000000000600052601260045260246000fd5b7f4e487b7100000000000000000000000000000000000000000000000000000000600052602260045260246000fd5b7f4e487b7100000000000000000000000000000000000000000000000000000000600052604160045260246000fd5b6000601f19601f8301169050919050565b7f202d2d204e465420233a20000000000000000000000000000000000000000000600082015250565b7f4552433732313a207472616e7366657220746f206e6f6e20455243373231526560008201527f63656976657220696d706c656d656e7465720000000000000000000000000000602082015250565b7f4552433732313a207472616e736665722066726f6d20696e636f72726563742060008201527f6f776e6572000000000000000000000000000000000000000000000000000000602082015250565b7f4552433732313a20746f6b656e20616c7265616479206d696e74656400000000600082015250565b7f7d2c207b202274726169745f74797065223a202241726d7920556e697473205760008201527f6f756e646564222c202276616c7565223a200000000000000000000000000000602082015250565b7f4552433732313a207472616e7366657220746f20746865207a65726f2061646460008201527f7265737300000000000000000000000000000000000000000000000000000000602082015250565b7f4552433732313a20617070726f766520746f2063616c6c657200000000000000600082015250565b7f4552433732313a2061646472657373207a65726f206973206e6f74206120766160008201527f6c6964206f776e65720000000000000000000000000000000000000000000000602082015250565b7f222c202261747472696275746573223a205b207b202274726169745f7479706560008201527f223a202241726d7920556e69747320416374697665222c202276616c7565223a60208201527f2000000000000000000000000000000000000000000000000000000000000000604082015250565b7f7d205d7d00000000000000000000000000000000000000000000000000000000600082015250565b7f4552433732313a20617070726f76652063616c6c6572206973206e6f7420746f60008201527f6b656e206f776e6572206e6f7220617070726f76656420666f7220616c6c0000602082015250565b7f4552433732313a206d696e7420746f20746865207a65726f2061646472657373600082015250565b7f4552433732313a20696e76616c696420746f6b656e2049440000000000000000600082015250565b7f4552433732313a20617070726f76616c20746f2063757272656e74206f776e6560008201527f7200000000000000000000000000000000000000000000000000000000000000602082015250565b7f646174613a6170706c69636174696f6e2f6a736f6e3b6261736536342c000000600082015250565b7f4572726f723a20706c61796572206d757374206861766520616374697665206160008201527f726d7920756e6974730000000000000000000000000000000000000000000000602082015250565b7f222c20226465736372697074696f6e223a20225468697320697320616e20617260008201527f6d792074686174206c6574732074686520686f6c64657220626174746c65206960208201527f6e2074686520576172206f66205369626c6f7261222c2022696d616765223a2060408201527f2200000000000000000000000000000000000000000000000000000000000000606082015250565b7f4572726f723a20656d70697265206d757374206861766520616374697665206160008201527f726d7920756e6974730000000000000000000000000000000000000000000000602082015250565b7f7b2266616374696f6e223a202200000000000000000000000000000000000000600082015250565b7f4552433732313a2063616c6c6572206973206e6f7420746f6b656e206f776e6560008201527f72206e6f7220617070726f766564000000000000000000000000000000000000602082015250565b61440a81613c33565b811461441557600080fd5b50565b61442181613c45565b811461442c57600080fd5b50565b61443881613c51565b811461444357600080fd5b50565b61444f81613c9d565b811461445a57600080fd5b5056fe4d696e746564204e465420772f20746f6b656e496420257320616e642061726d79496e646578202573456d706972652061747461636b656420706c617965722e204e657720706c617965722061637469766520756e6974733a2025730a4142434445464748494a4b4c4d4e4f505152535455565758595a6162636465666768696a6b6c6d6e6f707172737475767778797a303132333435363738392b2f506c617965722061747461636b656420656d706972652e204e657720656d706972652061637469766520756e6974733a202573456d706972652041726d79206861732025732061726d7920756e69747320726561647920746f2066696768740a506c6179657220772f20612025732061726d792069732061626f757420746f2061747461636b2e204861732025732061726d7920756e69747320726561647920746f206669676874a2646970667358221220990496d30295bd1e6581e75cc881340b3ab398be113868af5f823852a99cf2a964736f6c63430008010033446f6e6520696e697469616c697a696e6720257320772f20257320756e6974732c20696d67202573446f6e6520696e697469616c697a696e6720656d706972652061726d7920257320772f20257320756e6974732c20696d67202573",
  "linkReferences": {},
  "deployedLinkReferences": {}
}